:020000040020DA
:10200000087600208D22200067D8200065D82000A7
:1020100065D8200065D8200065D8200000000000A9
:1020200000000000000000000000000065D8200053
:1020300065D820000000000065D82000F3D92000FA
:1020400015DA20001BDA200021DA200027DA200030
:1020500000000000F9D92000FFD9200065D8200039
:1020600065D8200000000000000000000000000013
:10207000000000000000000065D820000000000003
:10208000000000000000000065D8200065D8200096
:1020900065D8200065D8200065D8200065D82000CC
:1020A00065D8200065D8200065D8200065D82000BC
:1020B00065D8200065D8200065D8200065D82000AC
:1020C00065D8200065D8200065D8200065D820009C
:1020D00065D82000000000000000000000000000A3
:1020E00000000000000000000000000000000000F0
:1020F00000000000000000000150200011502000EE
:1021000000000000000000000000000000000000CF
:1021100000000000000000000000000000000000BF
:1021200000000000000000000000000000000000AF
:10213000000000000000000000000000000000009F
:10214000000000000000000000000000000000008F
:10215000000000000000000000000000000000007F
:10216000000000000000000000000000000000006F
:10217000000000000000000000000000000000005F
:10218000000000000000000000000000000000004F
:10219000000000000000000000000000000000003F
:1021A000000000000000000000000000000000002F
:1021B000000000000000000000000000000000001F
:1021C000000000000000000000000000000000000F
:1021D00000000000000000000000000000000000FF
:1021E00000000000000000000000000000000000EF
:1021F00000000000000000000000000000000000DF
:1022000000000000000000000000000000000000CE
:1022100000000000000000000000000000000000BE
:1022200000000000000000000000000000000000AE
:10223000000000000000000000000000000000009E
:10224000000000000000000000000000000000008E
:10225000000000000000000000000000000000007E
:10226000000000000000000000000000000000006E
:1022700065D82000E94E20000D4F2000C145200008
:10228000755120007140200065D82000FF224824AD
:1022900008B5084B08481A60084AE3690849121A49
:1022A00098470848084A0021A369121A984701F084
:1022B0005DFBFEE7B4200D40404000203542002089
:1022C0001CFC200038420020016E002010B504469E
:1022D000436E9847034BE06E0022BDE8104019782A
:1022E00003F0C6BFEE6D00202DE9F04F0C4690467E
:1022F0001F4685B093B391F8B0341BB101F59560DA
:102300000BF0CCFA94F8B13463BB98F80030012F8D
:1023100084F8B134D4F8AC3403F10103C4F8AC341C
:102320001CD0012594F8B73483BB08EB0500AF42FD
:1023300014D9D4F8AC3494F8B82401330132052B05
:1023400010F8011B05F10105C4F8AC3484F8B82479
:102350000AD9002280212046FFF7B8FF002005B0EF
:10236000BDE8F08F0025DDE794F8B634B4F8B26428
:1023700001F07F0202FB0362DB0184F8B6340B0636
:10238000A4F8B224D3D4012384F8B734B4F8B22427
:10239000B2F5007F40F2CD8094F8B13403F0F00341
:1023A000302B00F0C680D4F8AC3401321F44974281
:1023B000C4F8AC74D2D3012384F8B034CEE7302B08
:1023C00055D194F8BF36002B51D194F8BE36B3B92D
:1023D00018F80530691C1B02501CB942A4F8BA3623
:1023E000C4F8AC0480F0A38018F8011002320B434B
:1023F0000235A4F8BA36C4F8AC2484F8BE96B4F812
:10240000BEB6BBF1010F32D1B4F8BC06B4F8BA665F
:10241000791B361A8E4228BF0E4600F2C460B2B253
:1024200008EB0501204401920BF072F8D4F8AC34AB
:10243000019AB4F8BC16154431441A44B4F8BA36BB
:1024400089B29942C4F8AC24A4F8BC160DD1631823
:1024500084F8BFB683F8C4A6B4F8B234023B591A64
:1024600089B2A4F81017A4F8121784F80E9794F8FC
:10247000B9047A1BC0F50076964228BF164600F2D2
:10248000BA40324608EB050120440BF041F894F8BD
:10249000B924D4F8AC34324484F8B924002233444B
:1024A000C4F8AC343544D1B28E4202F10102FAD8FC
:1024B000BD4205D3B4F8B22401329342FFF44EAFCB
:1024C000B4F8B204D4F8AC2494F8B11401308242C8
:1024D00001F0F003FFF473AF402B4FF0010268D01E
:1024E0002CD8202B48D0302B7FF465AF002504F288
:1024F000BA43C4F8083794F8B9340421A4F80C3767
:102500002046A4F8125704F5D862FFF7DFFE94F8CE
:102510000E37012BB4F8123708BF84F80E57002B82
:102520007FF449AF04F595600BF0B8F943E70D4629
:102530009DE74FF001094FF0000AC1E7902B46D00C
:1025400009D8602B04D001F0D00150297FF433AFBB
:102550000022842129E0B02B7FF42DAF94F8BB3406
:1025600084F8992294F8BA24032143EA0223A4F8B8
:10257000B43404F2B44218E094F8BB342BB1822195
:10258000204604F2BB42FFF7A1FE0123E18A194A6B
:1025900084F89932C901234604F1180003F030FD94
:1025A00000220823114684F860302046FFF78EFE93
:1025B00001E794F8BB3484F8992294F8BA240521F1
:1025C00043EA0223A4F8B43404F2B442EDE794F8E9
:1025D000BB3484F8992294F8BA24022143EA0223F6
:1025E00094F8BC24ADF80C308DF80E20A4F8B43467
:1025F00003AADAE7F925200010B590F83830024632
:102600008BB1022300F22C7480F8603020460BF06E
:1026100086FC204607F0BEF82046BDE81040342274
:1026200000210BF051B8034B03481978BDE8104066
:1026300003F01EBE285C002040400020052330B57A
:10264000002580F86030012385B00446A0F868308A
:10265000A0F89C5280F8385000F595600BF01EF9F8
:102660000E4B84F8745203930D4B04F22C750293B5
:102670004FF4007304F1740221460092284604F2DC
:10268000A622019307F008F82846B4F8282704F595
:10269000E36105B0BDE8304007F036B8A52620005C
:1026A000E922200013B5032A0C468DF807201DD817
:1026B00002B31E4B0A461E48197803F0D9FD0323C6
:1026C00004F1180084F8603003F0DCFC012120469E
:1026D0000DF10702FFF7FAFD20460BF0E9F8637DE4
:1026E000012B05D12046FFF7A9FF01E0042A0ED0F7
:1026F00002B010BD062381F86030012381F87432E6
:102700000C4B0A460A48197803F0B2FDF0E7B1F81D
:102710004E372BB9012381F8743201F174030B6732
:1027200004F1180003F092FCE2E700BF235C0020F4
:1027300040400020255C002038B51D4C2578002D38
:1027400034D103F029FD1B4B18701B4B187003F09C
:1027500023FD1A4B187003F01FFD194B187003F07E
:102760001BFD184B187003F017FD174B187003F082
:1027700013FD164B187003F00FFD154B187003F086
:102780000BFD144B187003F007FD134B1870134B1F
:10279000187003F001FD124B187012480BF03FFA4D
:1027A0002946114803F08CFD0123237038BD00BF7A
:1027B000225C0020265C00202D5C0020255C00208F
:1027C000275C00202A5C00202B5C0020295C002074
:1027D000285C0020EE6D0020235C00202C5C002093
:1027E000245C00204C42002040400020F8B51F46E9
:1027F000137804460E46154633B34FF4EC620021BD
:102800000AF062FF294604F10C000BF0B8F800252D
:102810000123BDF818206375A4F8A422A4F8683039
:1028200004F595606766E666A4F89C5284F8385013
:102830000BF034F884F87452FFF77EFF034821460A
:102840000BF00DFA2846F8BD8220FCE74C42002030
:102850007FB50446084694F8601003291ED8E38229
:1028600004F17403236700236D4684F89932237DB5
:10287000294643F00203A4F828272375C4F8140757
:1028800004F5E3660BF057FB95E80F0086E80F00B0
:10289000044B22461978044803F0EAFC002004B0F7
:1028A00070BD00BF265C00204040002090F86030E2
:1028B0000246082B07D1092380F86030024B0348F9
:1028C000197803F0D5BC7047275C002040400020F9
:1028D0002DE9F3418DF8071040F2B941038806460F
:1028E0008B42154600F0F4832BD840F299418B427D
:1028F00000F0BF800BD8002B00F0CB8540F2824265
:10290000934241D000230320338000F0C6BD40F243
:10291000A7418B42F6D1664B9DF807101B788B427E
:1029200000F0AD80634B1B788B4200F21381624B49
:102930001B788B42C0F00E81604B186803F098FC46
:1029400008E140F2D3418B4200F04E85B3F59C6F15
:1029500000F0528640F2C6418B42D3D1544B9DF8D1
:1029600007101B788B4200F08A80524B1B788B42F9
:1029700000F24F81504B1B788B42C0F04A814F4B85
:10298000186803F075FC44E1494B9DF807201B785B
:102990009A4207D14A4B28461D600A2385F86030C9
:1029A0000AF086FF474B9DF807201B789A4204D116
:1029B000434B28461D60FFF741FE434B9DF807201F
:1029C0001B789A4240F0B2803D4B1D60B5F8A432AE
:1029D000A5F8543795F87432012B40F0A7800023F6
:1029E000A5F89C32364F3C68B4F89C32002B6DD071
:1029F000A3F5CA739AB2352A00F29580352B00F2FE
:102A00009280DFE813F03201DF0190009000F801BE
:102A100002020C0216022002390243024D02570242
:102A20006102900090006B02A402AD029000B60219
:102A3000BF029B02900090009000900090009000D8
:102A400090009000C802D202DC029000900090003A
:102A50009000E6020D0304039000900090009000A7
:102A600090009000900090009000900090009000E6
:102A7000C8010F4B9DF807101B788B420AD10A2220
:102A80000F4B02201B6883F860200022A3F89C22D1
:102A900000F003BD074B1B788B42A3D8064B1B7875
:102AA0008B429FD3054B186803F0E2FB9AE700BF07
:102AB000235C00202D5C00202C5C0020CC440020F6
:102AC00048420020265C0020255C0020102384F86A
:102AD0007832238A03B10233B4F854200C3302B1A4
:102AE00002329918B4F85C3003B10233CA18B4F852
:102AF000403003B102331344B4F8482002B102322B
:102B00001A44C4F87C2204F5217104F520700AF0FF
:102B1000ADFE94F88432042B40F2AC800022812177
:102B20002046FFF7D3FB0023A4F89C32C94B9DF845
:102B300007101B7899422BD1C74B1D6095F8603068
:102B4000092B25D195F87432012B40F0BC8200236B
:102B5000A5F89C32C04F3C68B4F89C32B3F5F37FC3
:102B600000F09D8200F26882002B00F07C8240F22F
:102B7000E512934200F074820023A4F89C32386876
:102B80000AF096FE012138680DF10702FFF79EFB5F
:102B9000B24B9DF807201B789A4224D1AE4B1D60A2
:102BA00095F87432012B1ED195F86030082B1AD19C
:102BB0000023A5F89C3240F2D321A74F3C68B4F81B
:102BC0009C328B4200F0D582B3F5357F80F096823F
:102BD000002B00F0AB8240F2D222934200F0A3829D
:102BE0000023A4F89C329E4B9DF807201B789A4244
:102BF00040F0F282984B1D6095F87432012B40F042
:102C0000EB8295F86030082B40F0E6820023A5F8AF
:102C10009C32914B1C689846B4F89C72002F00F0CF
:102C2000C282A7F50477BBB2142B00F27483142F71
:102C300000F27183DFE817F0100377036F036F036F
:102C40006F03900399036F03A203AB03B4036F03F5
:102C5000BD036F036F036F036F036F036F036F0396
:102C600060034FF4CA73A4F89C3294F87432002BBA
:102C700000F0AD80204694F878120AF049FE002852
:102C8000EFD1204694F8842204F520710AF050FE1A
:102C9000002840F09380002120460AF039FE0028E9
:102CA00040F0A580062120460AF032FE002840F0C0
:102CB000A880062220466B490AF03AFE002840F020
:102CC000AA80032120460AF023FE002840F0AD80B0
:102CD0002046217D0AF01CFE002840F0B080E18AE9
:102CE0002046090A0AF014FE002840F0C180204660
:102CF000A17D0AF00DFE002840F0C480002120468E
:102D00000AF006FE002840F0C7802046217C0AF029
:102D1000FFFD002840F0CA802046228AE1680AF0C0
:102D200007FE002840F0CC80237D5A0700F1DB80AD
:102D300094F91430002B17DA002120460AF0E8FD40
:102D4000002840F02481204694F854100AF0E0FD59
:102D5000002840F026812046B4F85420216D0AF066
:102D6000E7FD002840F02781237D5B0600F13681D6
:102D700020460AF0BCFD07234FF4A06184F86030C0
:102D8000201D0AF02CFF04F595600AF087FD40F243
:102D9000C913A4F89C3294F8993204F10408012B69
:102DA00040F0438140460AF02CFF10B12046FFF767
:102DB0007DFD04F595600AF071FDB4E640F29513CF
:102DC000A4F89C3294F87432002B7FF45AAF3B681D
:102DD00093F860300A2B3FF4A9AE234B00221978F8
:102DE000224B186803F044FA40F2994353E34FF43E
:102DF000CC73A4F89C3294F87432002B7FF44BAF60
:102E0000E5E740F29913A4F89C3294F87432002B51
:102E10007FF448AFDBE74FF4CD73A4F89C3294F80D
:102E20007432002B7FF445AFD1E740F29B13A4F836
:102E30009C3294F87432002B7FF443AFC7E74FF411
:102E4000CE73A4F89C3294F87432002B7FF440AF18
:102E5000BDE700BF275C002048420020285C00201E
:102E60002A5C002044F22000245C0020CC44002096
:102E700040F29D13A4F89C3294F87432002B7FF436
:102E80002EAFA4E74FF4CF73A4F89C3294F87432B9
:102E9000002B7FF42CAF9AE740F29F13A4F89C32EA
:102EA00094F87432002B7FF429AF90E74FF4D0737D
:102EB000A4F89C3294F87432002B7FF426AF86E796
:102EC00040F2A113A4F89C3294F87432002B7FF4E2
:102ED00023AF7CE74FF4D273A4F89C3294F8743299
:102EE000002B3FF474AF002120460AF011FD0028AA
:102EF000F0D1204694F840100AF00AFD18BB204695
:102F0000B4F84020E16B0AF013FD28BB00212046F5
:102F10000AF0FEFC48BB204694F848100AF0F8FC82
:102F200060BB2046B4F84820616C0AF001FD00281F
:102F30003FF4FEAE4FF4D573A4F89C3294F874328B
:102F4000002BEED143E740F2A513A4F89C3294F88D
:102F50007432002BCDD13AE74FF4D373A4F89C32EE
:102F600094F87432002BCAD131E74FF4D473A4F82B
:102F70009C3294F87432002BC8D128E740F2A91390
:102F8000A4F89C3294F87432002BC4D11FE740F2AD
:102F9000B313A4F89C3294F87432002B7FF4CCAEB7
:102FA00015E74FF4DA73A4F89C3294F87432002BCE
:102FB0007FF4C9AE0BE740F2B513A4F89C3294F845
:102FC0007432002B7FF4C7AE01E74FF4DD73A4F831
:102FD0009C3294F87432002B3FF4F9AE0021204665
:102FE0000AF096FC0028F0D1204694F85C100AF014
:102FF0008FFC88B92046B4F85C20A16D0AF098FCDB
:1030000000283FF4B5AE4FF4DE73A4F89C3294F878
:103010007432002BEED1DAE640F2BB13A4F89C32F6
:1030200094F87432002BDFD1D1E640460AF0E9FD76
:1030300000287FF4B7AECAE6B3F5F87F7FF49CAD05
:1030400094F87432002B7FF497AD201D0AF0D9FD5F
:1030500000287FF491AD26E040F2E513A4F89C32FD
:1030600094F87432FBB1E02120460AF051FC0028AC
:10307000F2D1002120460AF04BFC60B920460AF04C
:1030800036FC4FF48071201D0AF0A9FD4FF4F8734F
:10309000A4F89C32D4E74FF4F373A4F89C3294F86C
:1030A0007432002BE5D13B6893F860300A2B3FF473
:1030B00066ADC24B00221978C14B186803F0D8F8EE
:1030C00040F2A743E7E12A46BE4803F0D1F85FE5A6
:1030D000BD4B9DF807101B788B423FF4D0ACBB4B27
:1030E0001B788B423FF667ADB94B1B788B42FFF4E0
:1030F00062ADB34B186803F0BBF85CE540F2DE222A
:1031000093427FF46DAD94F8B034002B45D004F5B4
:1031100095600AF0C3FB002384F8383060E540F284
:10312000D223A4F89C3294F8743233B3C0212046E1
:103130000AF0EEFB0028F2D1002120460AF0E8FB5D
:1031400098B920460AF0D3FB012304F5956084F872
:1031500038300AF0A3FB4FF4A061201D0AF03FFDB8
:1031600040F2DE23A4F89C32CDE740F2D323A4F84A
:103170009C3294F87432002BDED13B6893F86030B7
:10318000082B7FF430AD8D4B002219788C4B1868DA
:1031900003F06EF840F2B9437DE1201D0AF031FDE5
:1031A0000028B4D1E9E78223B4F88C2284F878327D
:1031B0000532C4F87C2204F5217104F520700AF070
:1031C00055FB94F88432042B4AD93A468121204693
:1031D000FFF77CF8A4F89C727E4B9DF807201B78C3
:1031E0009A4240F030817C4B1D6095F87432012B7F
:1031F00040F0298195F86030082B40F024810023AD
:10320000A5F89C32744B1C689846B4F89C72002F49
:1032100000F00081A7F24F27BBB2122B00F29C8175
:10322000122F00F29981DFE817F03F019F0197010B
:103230009701B801C1019701CA01D301DC019701CF
:1032400097019701970197019701970197018801CD
:103250004FF40473A4F89C3294F87432002B66D0B7
:10326000204694F878120AF053FB0028F0D120464B
:1032700094F8842204F520710AF05AFB00284ED1FC
:10328000002120460AF044FB002861D1204694F832
:1032900086120AF03DFB002863D1B4F88C12204658
:1032A000090A0AF035FB002864D1204694F88C12F4
:1032B0000AF02EFB002866D12046B4F88C22D4F800
:1032C00088120AF035FB002866D1204694F898123F
:1032D0000AF01EFB002868D120460AF008FB4FF4D4
:1032E000A061201D0AF07BFC04F595600AF0D6FA77
:1032F0004FF40973A4F89C3294F89932271D012BDE
:103300006CD138460AF07DFC04F595600AF0C6FAE7
:10331000002384F86A300023A4F89C325CE740F272
:103320001123A4F89C3294F87432002B9FD1D8F862
:10333000003093F86030082B7FF44EAF1F4B002213
:1033400019781F4B186802F093FF40F2C643A2E0C1
:1033500040F21523A4F89C3294F87432002B8FD1DC
:10336000E5E740F21623A4F89C3294F87432002B5F
:103370008CD1DCE74FF40673A4F89C3294F87432D5
:10338000002B8AD1D3E740F21923A4F89C3294F899
:103390007432002B89D1CAE740F21A23A4F89C3278
:1033A00094F87432002B87D1C1E74FF40773A4F867
:1033B0009C3294F87432002B87D1B8E7245C00204B
:1033C000CC44002040400020235C00202D5C0020E5
:1033D0002C5C00202B5C00204842002038460AF07C
:1033E00010FC00288DD1A2E7BF4B9DF807101B7879
:1033F0008B423FF444ABBD4B1B788B423FF602AF90
:10340000BB4B1B788B42FFF4FDAEBA4B186802F041
:103410002FFFF7E6A223B4F88C2284F87832043226
:10342000C4F87C2204F5217104F520700AF01EFA1C
:1034300094F88432042B3BD93A4681212046FEF78A
:1034400045FFA4F89C72AC4B9DF807201B789A426C
:103450001FD1AA4B1D6095F87432012B19D195F834
:103460006030082B15D10023A5F89C32A34D2C68A1
:10347000B4F89C32B3F5287F00F2F88040F2922233
:10348000934200F2CF80002B00F0FF800023A4F8CD
:103490009C3240F282430120338002B0BDE8F081CB
:1034A00040F24F23A4F89C3294F87432002B5FD082
:1034B000204694F878120AF02BFA0028F0D1204622
:1034C00094F8842204F520710AF032FA002847D1DA
:1034D000002120460AF01CFA00285AD1204694F810
:1034E00086120AF015FA00285CD1B4F88C12204636
:1034F000090A0AF00DFA00285DD1204694F88C12D2
:103500000AF006FA00285FD12046B4F88C22D4F8DD
:1035100088120AF00DFA00285FD120460AF0E7F978
:103520004FF4A061201D0AF05AFB04F595600AF0E3
:10353000B5F940F26123A4F89C3294F89932271D22
:10354000012B53D138460AF05CFB04F595600AF074
:10355000A5F9002384F86A300023A4F89C3272E7AE
:103560004FF41473A4F89C3294F87432002BA6D153
:10357000D8F8003093F86030082B7FF464AF604BCC
:10358000002219785B4B186802F072FE40F2D343B8
:1035900081E740F25323A4F89C3294F87432002B54
:1035A00096D1E5E74FF41573A4F89C3294F8743281
:1035B000002B93D1DCE740F25623A4F89C3294F818
:1035C0007432002B91D1D3E740F25723A4F89C32F8
:1035D00094F87432002B90D1CAE74FF41673A4F814
:1035E0009C3294F87432002B8ED1C1E738460AF031
:1035F00008FB0028A6D1BBE73B4B9DF807101B78C2
:103600008B423FF43CAA394B1B788B423FF62EAFDE
:10361000374B1B788B42FFF429AF364B186802F00A
:1036200027FE23E7A3F293230D2B3FF62FAF01A232
:1036300052F823F00D372000B93720008D342000D8
:103640008D342000E9372000FB3720000D382000A2
:103650008D3420008D3420001F3820004938200090
:103660008D3420008D3420005B38200040F2B222DF
:1036700093427FF40BAF94F89932271D012B40F051
:10368000FC8038460AF0BDFA8AE094F8982294F853
:103690009A12530043F03003DBB2012984F87832E8
:1036A00008BF43F00103D4F8941208BF84F87832BD
:1036B000B4F88C320B44A2B90233C4F87C32D4F88B
:1036C0007C2204F5217104F520700AF0CFF894F8FB
:1036D0008432042B1ED9002281212046FEF7F6FDFC
:1036E000D4E60433E9E700BF235C00202D5C002012
:1036F0002C5C0020CC440020295C002048420020A3
:10370000245C002040F29323A4F89C3294F8743295
:10371000002B55D0204694F878120AF0F9F80028CA
:10372000F0D1204694F8842204F520710AF000F9C3
:1037300000283DD1B4F88C122046090A0AF0E8F8B6
:1037400000284DD1204694F88C120AF0E1F80028A8
:103750004FD12046B4F88C22D4F888120AF0E8F849
:1037600000284FD194F89832002B5CD12046B4F851
:103770009422D4F890120AF0DBF8002869D1204690
:103780000AF0B5F84FF4A061201D0AF028FA94F869
:103790009822002A66D13C4BE06E197802F068FD51
:1037A00004F595600AF07AF8002384F86A306DE633
:1037B0004FF42573A4F89C3294F87432002BB0D1E6
:1037C0002B6893F86030082B7FF463AE2F4B0022F8
:1037D00019782F4B186802F04BFD4FF49C635AE6A2
:1037E00040F29723A4F89C3294F87432002BA1D1B4
:1037F000E6E74FF42673A4F89C3294F87432002B59
:10380000A0D1DDE740F29923A4F89C3294F87432F9
:10381000002B9ED1D4E74FF42773A4F89C3294F880
:103820007432002BCCD0002120460AF071F8002819
:10383000F1D1204694F886120AF06AF8002895D053
:1038400040F29D23A4F89C3294F87432002BF0D1FE
:10385000B6E74FF42873A4F89C3294F87432002B26
:1038600084D1ADE7012A9BD104F595600AF016F8E2
:1038700040F2B223A4F89C32FDE638460AF0C1F9C2
:1038800000287FF4FEAE9BE7EE6D0020245C002054
:10389000CC44002070B504461E4694F860301046B3
:1038A000082B1FD194F86A500123EDB9B4F86810C1
:1038B00084F86A30023189B2A4F86810A4F886123C
:1038C000C4F8882209F050FF084BA4F88C02224665
:1038D0001978074884F8986284F8995202F0C8FC75
:1038E000284670BD8125FBE71D46F9E72A5C0020CC
:1038F0004040002070B504461E4694F860301046E3
:10390000082B2AD194F86A50012345BBB4F86810FB
:1039100084F86A3002319DF8183089B2A4F8681032
:10392000A4F8861284F89A32C4F8882209F01CFFA1
:10393000049BA4F88C02C4F894329DF814302246FB
:1039400084F89832074B08481978C4F8906284F8D4
:10395000995202F08DFC284670BD8125FBE71D467B
:10396000F9E700BF295C0020404000202DE9F34129
:1039700000F0C2FC00F0BAFD00F018FD00F0DAFA29
:1039800001F0E6FB0AF029F900F0A8FD00F0CCF800
:10399000012009F0FEFF02F007FC00F099FC002076
:1039A00000F0BAFB012000F0B7FB4B49002000F00B
:1039B00079FC02F02DFD0AF025F8042009F0E9FF5A
:1039C00046480AF04DF846480AF04AF800F050FA26
:1039D000002002F0C9FD01F0ADFA0021414802F0DB
:1039E0006FFC02F0D7FA0AF002F800F00BFE00F0CC
:1039F00027FE08F073F80821684601F0EDFB9DF8FA
:103A000006309DF80760384C46EA03266B4603CB28
:103A100020606160354801F0D1FD00272546DFF8C0
:103A20000481404614F8011B013701F0C7FD072F40
:103A3000F7D12F4FE9792F4801F0C0FDFC6A4AF613
:103A4000CD310220A04731460320A0471A21012092
:103A5000A047694608227B6B0B209847264801F057
:103A6000ADFD264B186809F0FBFF254801F0A6FDC7
:103A7000244B186809F0F4FF234801F09FFD234B05
:103A8000186809F0EDFF224A2B6813606B685360D9
:103A900007F04EFD00211F4802F012FC00211E48D5
:103AA00002F00EFC1D4B01219B68812098470AF013
:103AB00069F81B480AF05CF800F010FC022009F0DD
:103AC00068FF00F011FC02F087FB10F0FF0FF8D147
:103AD00001F0D2FAF5E700BFC963200058F22000D8
:103AE00074F2200088400020F96D002099F2200037
:103AF000E8F0200081F92000BDF22000B0F12000A4
:103B0000C4F22000C8F12000CBF22000E4F1200034
:103B1000F06700203C410020B840002070F02000F9
:103B200014F22000B7F2200008B500F045F9002299
:103B3000014B1A7008BD00BF2E5C0020024B1A78A2
:103B40001043187000F05CB92E5C0020034A137813
:103B500023EA0000107000F053B900BF2E5C002073
:103B6000024B1A785040187000F04AB92E5C0020C1
:103B700008B50B4B1B7803420FD020280BD004282C
:103B80000BD10220074B80211A7800F0D9FC20EAE3
:103B9000E07000B208BD0520F4E74FF00040F9E7FF
:103BA000305C00202F5C0020802810B50C4605D02A
:103BB000B0F5807F29D04FF0004025E08B1E222BEE
:103BC000F9D8184A136823EA0103136052F8203C1D
:103BD00023EA010342F8203C8A0604D5012205218C
:103BE000002000F091FC630704D50122022100208F
:103BF00000F08AFC00F09CFC30220B4B1A700B4B3F
:103C0000187820441870002010BDC8B2202803D0B6
:103C100005D810F0EF0FCED1034B1870F4E7302821
:103C2000FAD0C8E720940D402F5C0020305C0020C3
:103C300018B1012804D000207047034B1868704762
:103C4000024B1878704700BF20900D40315C002077
:103C500010B5094A0020137801331370074B197807
:103C600002F006FBBDE8104005490023054A09683B
:103C7000054802F0C5B900BF315C0020EF6D00209F
:103C800078420020513C200058420020812810B585
:103C90000C462BD0B0F5807F3AD0802824D102F09A
:103CA0007BFA1D4B1D4A18701368032123F008038B
:103CB000136052F8203C002023F0080342F8203C17
:103CC00052F81C3C23F0080342F81C3C52F8183C04
:103CD00043F0080342F8183C042200F015FC0322CC
:103CE00000210F4800F0B4FB012408E00D4B1A68D6
:103CF00039B142F0080200201A6000F01BFB204698
:103D000010BD22F0080208461A6000F021FBF6E719
:103D1000054B1960E8E700BFEF6D002020940D40CF
:103D20002D3D200010940D407842002008B50F482A
:103D300009F067FFC8B108210C4809F050FF0C4B8F
:103D4000196849B100220B4B1A700B4B1B6843B921
:103D50000A4A0B4802F054F9BDE80840094802F04D
:103D6000D3BB074802F08EF9F6E708BD50420020A9
:103D700078420020315C002020900D40513C200012
:103D80005842002070F02000084A136823F0040312
:103D9000136052F8203C43F0040342F8203C002218
:103DA000034B1A600122034B1A70704720C40D4068
:103DB00010C00D40325C00200D4A0E49136823F0FC
:103DC000C003136052F8203C43F0C00342F8203C8B
:103DD0000022094B1A600B6823F010030B6051F8A6
:103DE000203C43F0100341F8203C044B1A6070471C
:103DF00020A40D4020C40D4000A30D4040C00D4044
:103E000010F0020218BFFF22084B1A6010F00402E3
:103E100018BFFF22064B10F001001A6018BFFF22E6
:103E2000044B14BF1A601860704700BF00A20D4019
:103E300000A10D4040C00D40044B1B68C3F3072098
:103E400013F4704F04BF1030C0B270471C300D40E7
:103E5000064B1868C00910F0060F03BF00F00700FA
:103E6000C0F1020040034FF40040704714300D4091
:103E70002DE9F047482488B0FFF7DEFF164B0646D1
:103E80001F68A36898476368804698470446FFF711
:103E9000DFFF054600F0C4FA814600F0CDFA824605
:103EA00000F07AFAAD0A07F00103A40AC7F340074D
:103EB000CDE905A003934146CDF8109002970195F6
:103EC000009406F00F03C6F30712044801F076FBD6
:103ED00008B0BDE8F08700BF1C300D40EEF22000B6
:103EE0002DE9F84300F086F810490246D1E9004573
:103EF000AC46A04238BF05F1010C6346C1E900237E
:103F00000B48D0E90089B8EB040169EB05048E1871
:103F100044EB0C07C0E9006701F0DCFF18B1BDE815
:103F2000F84301F05BBFBDE8F88300BF40420020CA
:103F3000384200200F4B104A1A6053F8042C42F00C
:103F4000050243F8042C53F8042C42F0020243F813
:103F5000042C0A4A136843F0010313600022084B43
:103F60001A60042243F80C2C012243F8082C0F227B
:103F7000DA62704714E000E047E8010008200D40D5
:103F80000C000340034BD3E90023100A40EA03600E
:103F9000704700BF40420020034BD3E90023D00B01
:103FA00040EA4340704700BF38420020054B18608C
:103FB00053F81C2C1C3B42F001021A601A68D2070D
:103FC000FCD470472800034010B5064C236823F04A
:103FD00001032360FFF784FF236843F0010323609C
:103FE00010BD00BF10E000E0014B1868704700BF33
:103FF0007C420020064B18685A6808331B681B0473
:1040000043EA0223034A0343106843EA006070470F
:1040100040500D404C500D4010B50446114A1368F5
:10402000DB07FCD509F0F2FCFFF7E4FF231A062BAF
:10403000D8BFC41D0C4B220E1A60C4F3074243F8CC
:10404000042CC4F3072243F8082CE2B243F80C2CEA
:1040500009F0D8FC054B91201C60BDE8104000F031
:1040600069B900BF50500D404C500D407C420020BB
:1040700008B500F0E9FF0022054B91201A6000F01E
:1040800075F9912000F064F9BDE8084002F03CB9F0
:104090007C420020064B1B681B075FBF054B18685E
:1040A00080F00800C0F3C00048BF0020704700BF88
:1040B00018C0004018D000402C23154A70B503FBEF
:1040C00000234FF6BF72DC680546236C626413F070
:1040D00050020DD00F4EA369DB0600D570BD56F817
:1040E00025301BB12068C0B29847F4E72368F2E797
:1040F00013F4D06FF2D04FF440732363FF23636057
:10410000E36AE262E362236B43F001032363E5E7C2
:1041100080F02000804200202DE9F04F0128064663
:1041200085B000F2B0802C254543584F7C1994F996
:104130002090B9F1000FC0F2A68094F922B0BBF133
:10414000000FC0F2A0804FF00008514800F0EEFFD1
:10415000504978590A6894F921A002430A604A68D4
:104160006068E56802434A608A68A06894F9233071
:1041700002438A6022690AEBC901C5F8C88F116041
:1041800094F823105FFA8BF0227D0193CDE90201B0
:1041900000F0C4F9DDE90201082200F0B5F90123BD
:1041A0003D494FEA0B32019852F801C003FA00FB77
:1041B0004BEA0C0050504FEA093959F8012003FA34
:1041C0000AFA4AEA020249F801205022AA63AA6BBD
:1041D00094F9240042F4D062AA6302226A634FF485
:1041E00040722A63A26940456A62E269AA624FF09E
:1041F0007002EA620D4614DB94F92510274A41EA61
:10420000C0041460020354598B4023435351C9B274
:104210004246C0B200F078F9214A136843F40043E3
:1042200013602C2303FB067393F92640002C1BDB41
:1042300093F827905FFA84F801224946404693F9A3
:1042400027A000F06BF901232403625903FA0AF353
:104250001343635108224946404600F055F9104A7D
:10426000136843F4804313602C2000FB0676F26849
:1042700096F82800136B43F00103136305B0BDE803
:10428000F04F00F057B805B0BDE8F08F80F0200087
:104290009540200028200D4020940D4004410D4001
:1042A00030D0004001289CBF014B43F820107047DC
:1042B00080420020012808D82C22044B02FB003049
:1042C000C3689A699206FCD41960704780F0200098
:1042D0000022014B1A60704700500D400822014B2C
:1042E0001A60704700500D40A022024B1A60502205
:1042F0001A60704700500D40074B084A1A60084B7F
:1043000080321A60074B80321A60074B80321A6085
:10431000064A074B1A6070478C42002000E100E01B
:10432000884200209042002094420020002020007B
:1043300008ED00E0054B41091A68012300F01F0059
:1043400003FA00F042F82100704700BF8C420020C1
:10435000054B41091A68012300F01F0003FA00F021
:1043600042F82100704700BF88420020054B4109F8
:104370001A68012300F01F0003FA00F042F8210040
:10438000704700BF94420020024B1868C0F3815070
:10439000704700BF04200D4008B5FFF7F5FF024B42
:1043A00053F8200008BD00BFD8F0200038B5164DE6
:1043B000164C2B68012223F040032B602368062152
:1043C00023F040030320236000F09EF82B680122B5
:1043D00023F080032B602368072123F080032360F0
:1043E000032000F091F80A4B0A4A0B491A600B4A65
:1043F000134610680842FCD11A685101FCD41A68AF
:104400005201FCD538BD00BF20C40D4000C40D4092
:1044100000200D40010102000000010104200D40B8
:10442000034B04481B6803F007031841704700BFA3
:1044300004200D400048E801034B04481B68C3F307
:1044400002231841704700BF04200D400048E801D6
:10445000024B02EBC10243F8220070479842002051
:10446000F8B507460D460024084E06EB411647FAFC
:1044700004F3DB07E1B204D556F824300BB128462B
:1044800098470134082CF2D1F8BD00BF98420020B3
:104490002DE9F8430546DFF8408000F0D5FD0C4BD0
:1044A0002E03F75856F808404FEAC50924FA09F4D4
:1044B00047EA04002946C0B2FFF7D2FFE4B2054B39
:1044C000FFB204FA09F4F75046F80840BDE8F88353
:1044D00018940D401C940D4018970D408022002127
:1044E000014809F0F1B800BF98420020034B044A8C
:1044F0001A60044B803A1A60704700BF18430020CE
:1045000080400D401C430020034B01EBC0011B68A1
:1045100043F82120704700BF18430020034B01EBF4
:10452000C0011B6843F82120704700BF1C430020D6
:10453000024A136843F030031360704700700D4067
:104540000E2870B506460BD1134B1C6844F00200D0
:1045500018601248056825F03F0343F0010303602B
:104560000F48036823F0FF031A43114331430D4AF8
:10457000016013681B06FCD50B4B0C4A1B681068C6
:1045800003F0FC0343EA00230E2E18B201BF034BD5
:104590001D60014B1C6070BD34000144F48608406E
:1045A00008700D4000700D400C700D4010700D40F3
:1045B000024B1868B0FA80F04009704700B7084015
:1045C00010B58F20064CFFF7D1FE8F20FFF7C0FEFD
:1045D000206818B101F08CFE0023236010BD00BFDD
:1045E00020430020064A136843F002031360536817
:1045F00043F002035360936843F0020393607047F3
:1046000048200D4007B50C4800F090FDFFF7EAFF89
:104610000A4B1A6842F002021A6000220192019AC3
:104620000F2A06DD1A6822F002021A6003B05DF854
:1046300004FB019A0132F1E7B145200054200D40FE
:10464000064A136823F002031360536823F0020341
:104650005360936823F002039360704748200D4035
:104660000B4B1A689207FCD41B685B065FBFED22F8
:10467000084B1A601A60084B1B6813B1EF22054BF8
:104680001A60064A0120137803F07F031370704705
:104690004C860840388808402C860840355C00204D
:1046A000044B186800F02200A0F120035842584142
:1046B000704700BF4C860840024B186800F040006D
:1046C000704700BF4C860840084B93F90020002A31
:1046D00009DBED21064A11601160E32111601A78AF
:1046E00062F07F021A700120704700BF355C002025
:1046F00038880840A0F10B01CBB20F2B10B504464F
:1047000013D80B4B1B6813F03F0302D0FFF7A8FF31
:104710000123084A01EB81010B3111600BB1FFF756
:10472000D3FF054B60B21C7010BD4FF0FF30FBE7AC
:10473000488608403C8608403242002010B50C46AE
:10474000002900F08680102800F28580DFE800F064
:1047500009101B22243B44575C727683837B7D5473
:104760007F003E4B1B68003B18BF0123236024E001
:1047700005223B4B1B6803F07F030B3B93FBF2F3DB
:104780000B33DBB2F2E7374B1A68043B1B6843EA92
:104790000223EBE7344BF7E700230B60334B344A3B
:1047A0001B6803F001030B601268900644BF43F0DE
:1047B00002030B602F4B1B780BB900200BE00B683A
:1047C00043F00403D2E700202B4B08601B78002B3A
:1047D000F3D001230B6010BD284B29491A68002330
:1047E000D2B201EBC3000079904202D851F83330C5
:1047F000BCE701330E2BF4D16FF01703B6E7214B62
:104800001B685BB2493BB1E71F4B1B6899060FD190
:10481000FFF75AFF01231D490A68D207FCD51C4A3D
:104820001168493949B20BB1FFF71AFF2160C4E79B
:104830000023F0E7174B93F9003097E7164B1B78EE
:1048400003F07F0392E70B2390E71A238EE70723F9
:104850008CE70220BFE70120BDE700BF2C8608409F
:104860003C860840CC850840D48508400086084036
:1048700024860840345C00203342002040860840F3
:1048800020F1200058860840488608406486084089
:1048900060860840365C0020335C002008B50B4B76
:1048A0001B6899060FD1FFF70FFF012308490A681B
:1048B000D207FCD5074A1168C1F300110BB1FFF70D
:1048C000CFFE084608BD0023F0E700BF4886084039
:1048D000648608404C86084038B505460C46134AA5
:1048E00013689B07FCD4124B93F90030002B01DBBB
:1048F000FFF7EAFEEE220F4B691E1A601A60A21C37
:1049000043F8102C2144022000F02CFB0A49013C02
:1049100041EA0411022000F037FB022000F03EFBC8
:10492000022000F053FB002038BD00BF4C86084039
:10493000355C00203888084002C001C0F8B5224B21
:1049400093F90030002B18DBFFF754FB0446FFF708
:10495000BBFEC4F1FF2404F57F04F634FFF74AFBE5
:10496000C442FBD40126194B1B7843B9184C236869
:10497000990609D502210846F8BD0026F3E7FFF79E
:104980008DFF0028F2D1F5E7E9230427114D2B60B4
:1049900023689A0703D4013F17F0FF070BD1236860
:1049A0009B070CD4EE2301212B602B60002EE2D05C
:1049B000FFF756FEDFE70620FFF7F8FAE8E7216881
:1049C00011F00201FBD1F1E7355C002033420020F9
:1049D0004C860840388808400B280DD1082A0DD194
:1049E00061B1074B074A083111F8010D43F8040B78
:1049F0009342F9D100207047012070470220704790
:104A0000A8850840C885084070B52F4E024630681A
:104A100010F0400008D02D4D2868040605D5ED2281
:104A200000202B4B1A601A6070BDC0B20428F6D962
:104A300002388842F3DCC4B2032C1ED12B681370F9
:104A40002B6853702B6893702968224B493949B2FF
:104A500019702B68204D18062B70E0D589B2042000
:104A600007F012F82978032001F07F0107F00CF815
:104A70001A4B1B78CBB12046D6E711190320013918
:104A800000F078FA164B611E032043EA011100F092
:104A90007BFA032000F082FA032000F097FA03204B
:104AA00000F0A0FA0028FAD1CEE733685A06E2D522
:104AB00033681B0603D50B4801F01AFCDBE7ED2237
:104AC000034B1A601A60D6E74C86084028880840D5
:104AD00038880840365C0020335C0020345C0020BD
:104AE00002C0010C604000201E4B1870002830D01E
:104AF0001D4A13681B03FCD51C4B1A6842F00202C6
:104B00001A601A6842F001021A601A685007FCD550
:104B10001A6822F001021A601A685107FCD41A6858
:104B200042F002021A601A6842F001021A601A6822
:104B30005207FCD50E4A8D20136823F0040313603E
:104B4000D2F8A83102F5D47223F004031360FFF702
:104B5000FFBB074A8D20136843F004031360FFF77F
:104B6000E9BB00BF345C002004200D4004880840ED
:104B70008C86084008B507285FD8DFE800F0040FEE
:104B80001A2124404659012903D1FFF79DFD002039
:104B90003AE0002953D1FFF763FDF8E7A1F10B03D9
:104BA0000F2B4CD8C8B2FFF7A5FD0130EFD1032081
:104BB0002AE0244BCAB2C1F307211A605960E6E724
:104BC000214BCAB2F7E731F0070338D11F4B11F080
:104BD000010F1A68C1F3800014BF42F0010222F0F5
:104BE00001021A601A4B11F0020F1A6814BF42F04A
:104BF000200222F020021A60FFF776FFC7E731F0AB
:104C000001001CD1134B197008BD01F118031F2BB3
:104C100015D80D23104A52F83300814205DC02EB0F
:104C2000C3031A790D4B1A60B1E7013BF3D2AEE72B
:104C30000B4BC9B249311960A9E70120E4E7022012
:104C4000E2E700BFC8850840D085084000860840DC
:104C5000248608403342002020F12000408608408E
:104C600058860840F8B5294F3D7815F001054BD11D
:104C70000124F822264B7F261C605C609C60A3F513
:104C80009323A3F514731A600922C3F89021152207
:104C90001A670B22703303F59B23C3F83C21402293
:104CA00003F59E73A3F59B23A3F5F0731A601A68AE
:104CB00042F020021A60D52243F81C5CDE62DA6101
:104CC000144B1878FFF716FD134B8E201E60FFF76C
:104CD00031FB022000F06EF91049022000F04AF981
:104CE000032000F067F90D49032000F03BF90C4B5D
:104CF0001878FFF7F9FE0B48294601F0E1FA204643
:104D00003B7823433B70F8BD0020FCE7355C002076
:104D1000A8200D4032420020948608402888084090
:104D2000345C00206040002038B50388044653B34B
:104D300040F20342934233D11B4B18781A4638BBDA
:104D4000822923D1137873B906F044FE06F0D6FD0C
:104D50008021FFF759FE002805DD80B206F0B2FD84
:104D6000124B1B699847124B1A7852060BD500223A
:104D70001A70104B1D68FFF773FCFFF773FFAB064B
:104D800001D0FFF7A1FC40F20343238001200AE099
:104D90001B78002BFAD0064B1B785806F6D5CFE7C8
:104DA00000230380032038BD345C0020E4F12000A0
:104DB000355C0020488608400B282DE9F0470C465A
:104DC0000FD1082A79D1002977D03D4B3D4A4C1E9E
:104DD00053F80419934204F8011FF9D10020BDE8EB
:104DE000F0870C2867D1042A67D1002965D0364B9B
:104DF00036491A68DFF8E48022F007021A600A6870
:104E0000334F42F008020A60D8F800003A681D6883
:104E1000DFF8CCE0DFF8CCC025F070051D60DEF8CF
:104E20000050DCF80060C0B2120240EA066092B2A4
:104E300002434FEA0549274809F47F09D0F800A04A
:104E400042EA09061A685FFA8AF522F0070242F080
:104E500001021A600A6842F008020A60D8F80020CD
:104E60003F68196821F0700141F010011960DEF807
:104E70000010DCF800C0D3B23A0243EA0C6392B2ED
:104E800013430A04016802F47F0243EA02085FFA4E
:104E900081F9FFF7AFF8B6EB080165EB0905ED0303
:104EA00007460023C8030C4A45EA514108F084F93B
:104EB0003F1A276092E7012091E702208FE700BFA9
:104EC000C4850840A485084010880840048808402C
:104ED000188808401C8808400048E80114880840E9
:104EE000248808402088084008B5054B1B7813B972
:104EF000044801F0FDF90022034B1A6008BD00BF11
:104F0000345C00206040002034880840064B07488D
:104F10001A68042A1FBF06490A7842F040020A7044
:104F200000221A6001F0E4B92C880840604000209B
:104F3000355C002008B5094B40221846002108F0D6
:104F4000C3FB0121064A116050602E20FFF7F2F9E1
:104F5000BDE808402F20FFF7EDB900BF004000205A
:104F600004F00F4003289EBF014B00011950704709
:104F70000040002003289EBF024B03EB001041605D
:104F8000704700BF0040002003289EBF024B03EB88
:104F900000108160704700BF00400020032806D841
:104FA0000123034A03FA00F01168084310607047B8
:104FB00028F00F40032806D80123034A03FA00F023
:104FC000116808431060704720F00F40032806D88E
:104FD0000123034A03FA00F0116808431060704788
:104FE00014F00F4003289FBF044B03EB00108068B0
:104FF00000F0070088BF0020704700BF004000207D
:105000004FF0FF32014B1A60704700BF04F50F40AC
:105010000122014B1A6070474CF00F40084B1946B3
:105020001A68D002FCD4074B1A6822F480321A6046
:105030000A68D203FCD41A6842F400321A6070473E
:1050400004200D4000200D4010B5094C2268900747
:105050000DD0084B1A4619684901FCD413685B014E
:10506000FCD5FEF7B1FFFFF7D9FF0023236010BD89
:1050700058200D4004200D4038B5264B1C6814F014
:105080003F0414D1244D55F8043B23B1984770B127
:105090000134052CF7D1214D2B7843B1FEF7A4FF45
:1050A0000446FEF7A7FF201A092800D90CB930BF23
:1050B00027E01B4B1A6822F400321A60194A114685
:1050C0001068C002FCD41A6842F480321A600B687F
:1050D000DB03FCD5FEF78EFF241A092C03D8BDE8AC
:1050E0003840FFF79BBF632C0F4C0BD92B78022B5A
:1050F00008D1236001F0B2F830B1FFF78FFF002331
:10510000236038BD0123F4E7FEF76EFF0028F4D0DA
:10511000CDE700BF4886084024430020375C0020CC
:1051200000200D4004200D4058200D40074A10B5C6
:105130000023144652F8041B814202D011B944F8EE
:10514000230010BD0133052BF4D1FAE724430020DE
:105150000022054B1A60054A136843F004031360EC
:105160000222034B1A70704758200D4010ED00E0EA
:10517000375C002010B59020064CFFF7F7F8902020
:10518000FFF7E6F8206818B101F0B2F800232360B9
:1051900010BD00BF3843002070B50E4D04462E7878
:1051A0004EB9C0213046FFF785F80D213046FFF794
:1051B00081F801232B700020E1B2FFF77BF80A2C65
:1051C00005D1C0210020FFF775F800232B70204681
:1051D00070BD00BF385C002070B5184B1A78431EB4
:1051E00052B101F52011164A273191421AD011F817
:1051F000010903F8010FF8E7124A1278122AF0D1D8
:10520000114A12784B2AECD14C0804F520120C4DAF
:105210002732AA4207D1002301F52011204427316B
:10522000A34205DB70BD12F8016903F8016FF0E7D6
:10523000CA1A1278013300F8012BF1E72B0028007D
:10524000270028002A002800290028000020014902
:10525000FFF728B8115520002DE9F74F03880746BE
:10526000002B49D0B3F5A57F40F0028182294FF091
:10527000010540F00181DFF824B2804BDFF828926D
:10528000BBF800401D7019F80430DA46432BC846BD
:105290007B4E41D17B4B1B889C423DD21B1B052B77
:1052A0003ADD09EB0403062218467749019308F01A
:1052B000FFF8019B024600282ED149F8040098808F
:1052C000704B724C1880724B3080ABF800001D7030
:1052D00014F8010B019208F0D1FB019A01320D2A5A
:1052E000F6D100256B4B1D807DB16B4B1B6803B164
:1052F000984704F01DFB08E0614A1380614A13805F
:10530000664A13800122624B1A704FF4A573012084
:105310003B8003B0BDE8F08F32880025944202D173
:105320005C4B1D80F1E739D32B464FF0C00E4FF098
:10533000DB095B4808EB040CB4F5887F03D2B5F5B4
:10534000807F59D9002500204FF0C00E4FF0DB09B7
:10535000DFF854C1524C81B28A423CD9B5F5807F06
:1053600038D81CF8011B002B64D0DD295DD105F86D
:1053700004900135ADB200230130ECE7A9B113F878
:10538000011BDD2905D105F800900135ADB20021E2
:105390001AE0DC29FBD105F800E0F6E740F2011C39
:1053A0004FF0C00E4FF0DB093D4818F80430DB2BFE
:1053B00016BF002101212B5404F1010318BF013550
:1053C0009BB218BFADB243440134A4B2A24202D989
:1053D0006545D3D10025013292B2B2F5887F04BF72
:1053E00000233380274B18BF3280328819888A42C5
:1053F0003CD1AAF8002075E71CF8011B73B1DD2928
:1054000007D105F800900135ADB200230134A4B2F4
:1054100092E7DC29F9D105F800E0F4E7DB291BBFAE
:10542000295401350123ADB2F0E7DC29A3D105F8F9
:1054300004E09EE7DB291BBF295501350123ADB2EE
:105440009AE701339BB2B3F5887F4FF0000000D19B
:1054500003469942CDD018F80300C028F1D1114875
:105460003380AAF8002000F043FF3BE71046EFE747
:105470000023038003204CE728464AE7F46D002010
:10548000F0570020EE570020C0F32000C7F32000A3
:10549000495D0020E46700203C430020EC570020D9
:1054A000F867002070400020395C0020014B186034
:1054B000704700BF3C430020F8B5C02008F0DEFA7A
:1054C0000025104C104E114F3288ABB29A4204D8CE
:1054D000C02008F0D3FA0020F8BD3C2B08BF3C6880
:1054E00014F8010BC02807D1DB2008F0C7FADC2034
:1054F00008F0C4FA0135E7E7DB28F9D108F0BEFA75
:10550000DD20F5E7F8670020E4670020046900204B
:1055100038B5244B1A781C46022A07D0032A26D114
:10552000C02804BF01221A7000202FE000F12402DD
:10553000D2B2012A06D903221A701B4B1A881B4BC0
:105540001A80F1E701232370184B1A88511C89B285
:10555000B1F5887F08BF0021198015491D88098889
:105560008D4208D1032222700F4A1288E8E7DB2817
:10557000EAD10223E7E70F4C5428A05407D1635C1B
:10558000432BD1D10C4800F0B3FE012038BDC02818
:10559000CAD1054804889442D2D0A142F2D10280F7
:1055A000F0E700BF495D0020F0570020EE570020D3
:1055B000EC570020395C0020704000200FB407B584
:1055C00004AA52F8041B0448019200F035F803B015
:1055D0005DF804EB04B07047804000201FB50C4616
:1055E0001146074ACDE90004029202A81A46CDF8F6
:1055F0000CD000F021F80022009B1A7004B010BDFE
:1056000003DB200070B505460C460A4E102C07D867
:1056100074B122462B6868680649BDE87040184797
:10562000102231462B686868984710B9103CEDE7A6
:10563000204670BD2FF420002DE9F04F0746154697
:1056400000268FB00791079B1B78002B00F09C83EE
:10565000079B1A781C460133002A00F08583252A0F
:10566000F7D1079B9C4205D081E323784644002B69
:1056700000F08A836278631C002A00F0858300248E
:10568000184610F8012B19462B2A17D00BD8202AC0
:1056900017D0232A18D0A2F1310CBCF1080F3FD843
:1056A0004FF0000A18E02D2A04D0302AF3D144F03C
:1056B000100401E044F001040346E1E744F006046D
:1056C000FAE744F00204F7E744F00804F4E70A219B
:1056D00001FB0A2AAAF1300A194613F8012BA2F19C
:1056E00030000928F3D90B782E2B37D14A784B1C80
:1056F000A2F13000092829D84FF000081A7819467D
:10570000A2F13000092803F1010319D90B786C2BA1
:105710006FD14B786C2B24D144F08004023123E00C
:105720002A2A0AD1D5F800A00146BAF1000F05F1E6
:105730000405B8BF44F00104D5E74FF0000AD2E7F2
:105740000A2101FB0828A8F13008D7E72A2A04D14A
:10575000D5F8008002310435D8E719464FF0FF38FC
:10576000D4E7013144F060040B78782B0CD8572B28
:105770004BD8472B08D8402B00F29080002B00F02C
:105780000383252B00F0D3804B1C079304F4E063C4
:10579000B3F5A06F00F0C98200F2CC80B3F5407F72
:1057A00000F07282B3F5806F00F03682B3F5807F2F
:1057B0007FF449AFB8F1000FACBF24F010044FF0F4
:1057C000010814F4005204F0E003069200F0EA80AD
:1057D000402B00F0E08000F2C280002B00F0DE8061
:1057E000202B00F0C78000220023CDE900230023F6
:1057F000CFE0682BB8D14B78682B02D144F020045D
:105800008CE7013144F04004AEE7583B202BBBD875
:1058100001A252F823F000BFE15820008957200070
:105820008957200089572000895720008957200078
:105830008957200089572000895720000B592000E4
:105840008957200017592000C9582000F35820001C
:10585000E7582000FF58200089572000C958200031
:105860008957200089572000895720008957200038
:1058700029592000D558200023592000895720009D
:10588000895720001D59200089572000CF5820003B
:105890008957200089572000DB582000413B062B08
:1058A0003FF672AF01A252F823F000BF1159200059
:1058B000895720008957200089572000F958200077
:1058C000ED5820000559200044F424545CE744F4CA
:1058D000106459E744F4885456E744F4C85453E735
:1058E00044F4B24450E744F400744DE744F4844473
:1058F0004AE744F4024447E744F4424444E744F4AA
:10590000813441E744F4A1343EE744F4C1343BE739
:1059100044F4E13438E744F4A06435E744F48064A7
:1059200032E744F440742FE744F4E0642CE744F495
:10593000C06429E7B3F5C06F07D0B3F5E06F7FF41B
:1059400082AE2B6804351E607DE601223B68A949C2
:1059500078689847002840F01582013673E6602B7E
:105960001CD0802B7FF43FAF073525F00705F5E805
:10597000022303E095F90020D3170435002A73F1C0
:105980000001BFF632AF524263EB4303CDE900237F
:105990000123039317E0B5F90020EDE72A680435E9
:1059A000D317EBE7402B00F0B08000F29A80002B79
:1059B00000F0AD80202B00F0A180069B0022039315
:1059C0000023CDE9002304F4C053B3F5805F00F059
:1059D000D580B3F5C05F00F0D680B3F5006F00F05E
:1059E000B78000230DF1360B0493049B41F20802AB
:1059F000984588BFA8EB030841F6080304EA0301B1
:105A000098BF4FF0000891421A4604D1B8F1010F37
:105A100038BF4FF00108049B914203EB080040F0AF
:105A2000CC80DDE90023134300F0C780724914F4F1
:105A3000804F724B4FF0020918BF0B46069A72B1A5
:105A4000039A002A40F0BD8004F00602022A00F00A
:105A5000BC80062A6A4A04BF4FF00109134609EBCD
:105A60000002924594BF4FF0000AAAEB020A14F01C
:105A70000102009204D1E10640F1AB80D04492468D
:105A8000B9F1000F07D04A4619463C687868A0472C
:105A9000002840F077814446049B1E44102C59494D
:105AA000D7E9003000F29F802CB122465549984733
:105AB000002840F0678159463B68049A78684E4454
:105AC0009847002840F05E81009B4644002B00F080
:105AD000D48051463846FFF795FD002800F0CD8070
:105AE00050E1602B13D0802B7FF467AF073525F092
:105AF0000705F5E80223CDE9002304E02A78002316
:105B0000CDE900230435069B43E72A88F7E72B6895
:105B1000002219460435CDE90012F4E7DDE904015D
:105B20000A22002307F048FBDDE9040130320BF8BC
:105B3000012D00230A2207F03FFBCDE90401DDE936
:105B400004231343EAD10DF13603A3EB0B034BE718
:105B5000DDE900230DF1360BCDE90423EFE702F078
:105B6000070130310BF8011DD10841EA4371D80813
:105B70000A46034652EA0301F1D1E4E70DF1360B80
:105B8000DDE90023F6E7204B14F4804F0DF1360BCE
:105B90001E4908BF1946DDE9002352EA0300D2D0AE
:105BA00002F00F00085C4FEA131C0BF8010D1009FE
:105BB00040EA037002466346EFE74FF000094B46A8
:105BC0003CE74FF00109124B49E74FF00109114B37
:105BD00045E7514638460393FFF714FD039B002821
:105BE0003FF44EAFCEE010229847002840F0CA8024
:105BF000103C53E72DF420001CF420001FF420007B
:105C000024F420003FF420000BF42000FAF32000DD
:105C100022F42000C9F22000D5F800900435B9F133
:105C2000000F2CD04B469B469BF800200133002AE6
:105C3000F9D1ABEB090BB8F1000F02DBC34528BF6C
:105C4000C346DA4594BF4FF0000AAAEB0B0A14F0E2
:105C5000010406D151463846FFF7D4FC002840F035
:105C600091805A4649463B6878689847002840F03A
:105C700089805E44002C7FF42CAF5644E3E44FF05F
:105C8000060BDFF81491D6E7414B424A14F4804FDB
:105C900008BF9C460DF1330318BF944600211A46F5
:105CA0002868043550EA010E30D1D21A08BF3022DC
:105CB0004FF0780104BF03F8012C03F1FF3303F820
:105CC000011C4FF0300108BF012203F8021C232100
:105CD00002F10309CA4594BF4FF0000AAAEB090A72
:105CE00014F00104A3F1030803F8031C05D1514685
:105CF0003846FFF787FC002844D14A4641463B68B6
:105D00007868984700283DD14E44B3E700F00F0E65
:105D10001CF80EE04FEA111803F801ED4FEA101ECF
:105D20004EEA017E70464146BCE7BAF1010F38BF2A
:105D30004FF0010A2B6814F0010405F104058DF8F9
:105D400020300AF1FF3805D141463846FFF75AFCAA
:105D5000C0B9464401223B68786808A9984788B9C9
:105D6000002C8AD04146B5E6079B9C420CD0079B8D
:105D70000799A4EB030842463B68786898470028D7
:105D80003FF473AC4FF0FF3630460FB0BDE8F08FF4
:105D90000BF42000FAF3200026F4200010B50D4C7F
:105DA000236813B90C4A136010BDFEF7EBF82268A4
:105DB000D2E900310B441B1A92681AB91844064BF9
:105DC0001860F1E7D2E900142144091A8B4228BF78
:105DD0000B46F1E74443002040430020014800F017
:105DE00087BA00BF884000202DE9F84303880546A4
:105DF00053B1592B48D1872921D1002024490B6860
:105E000063B918B10B6001E0214A136059230120E6
:105E10002B80BDE8F88301203346F1E7D3E9026423
:105E20009442F8D000B10B6019460B4689680029EE
:105E3000ECD0C8689042F8D189689960F4E782296B
:105E4000E4D1134F4FF00009B84600263C68002CFF
:105E5000DCD0204607F0D5FE98B122468821E068C4
:105E600000F006FA58B9A368E0602EB1B360C4F838
:105E70000890FFF793FFE8E7C8F80030F7E7FFF76F
:105E8000ADFF2646A468E2E7002303800320C0E7B5
:105E90004443002010B50446FFF7A0FFE3680B4A17
:105EA0000BB1136833B90A4B1B68E36013681460C5
:105EB000A36004E0A34206D1054A1268DA60BDE897
:105EC0001040FFF76BBF9B68ECE700BF4443002026
:105ED000CC440020024B1868003818BF01207047DE
:105EE0004443002010B50B4A04461368834208D18E
:105EF00083681360FFF752FF0023C4E9023310BD2B
:105F00001346002BF8D09A68A242F9D1A2689A6091
:105F1000F0E700BF44430020F8B503880546164665
:105F2000CBB14A2B2BD188291FD1174807F07AFE15
:105F30000446C4B1231D9E421FD12146124807F0DA
:105F40007BFE124E626937683260A2690AB1E0696D
:105F50009047376007E00C4807F064FE044634B908
:105F600001220B4B1A704A232B8001200AE0A16802
:105F7000201D07F008FE2468F1E72468D9E7002314
:105F800003800320F8BD00BF48430020CC4400201C
:105F90004A5D002010B50024054B06481C7007F030
:105FA0003EFE2146BDE81040034800F089B900BF1D
:105FB0004A5D0020484300209840002070B5044608
:105FC000E3610B4B049D1B78C4E905526BB1094D8D
:105FD000094B2E68201D2B6007F0D5FD2E60214651
:105FE000BDE87040054807F03ABEA160F7E700BF82
:105FF0004A5D0020CC440020984000204843002007
:1060000013B5034C24680094FFF7D8FF02B010BD0D
:10601000CC44002070B5094B04461B783BB1084DB9
:10602000084B2E6804302B6007F0B6FD2E60214629
:10603000BDE87040044807F012BE00BF4A5D002072
:10604000CC440020984000204843002070B5094B04
:1060500004461B783BB1084D084B2E6804302B607A
:1060600007F0A3FD2E602146BDE87040044807F00C
:10607000F6BD00BF4A5D0020CC44002098400020BF
:106080004843002010B5084B04461B7843B1043048
:10609000FFF728FF2146BDE81040044807F0CCBDBB
:1060A000C0E90333F6E700BF4A5D00204843002003
:1060B00038B5836804460D469BB10A480460022047
:1060C000A07304F10C0098470238012801D9832DF0
:1060D00005D121462046BDE8384000F005B801232F
:1060E000A37338BDCC4400202DE9F8431C4F04466F
:1060F0003D6888462B46A34204D00BB9BDE8F8831F
:106100001B68F8E7002CF9D0164EA37BD6F8009058
:1061100063B10023A3738DB9A3683BB1444505D097
:106120002A468321346004F10C0098473B68A3425F
:106130000ED123683B60C6F80090DFE7A54204D08B
:1061400022468721284607F042FD2D68E3E71346E3
:10615000002BF0D01A68A242F9D122681A60EAE74F
:10616000D0440020CC440020002238B50125084B43
:106170001A70084B1C6804B938BDE37B2BB10022B0
:1061800082212046E581FFF793FF2468F3E700BFF3
:106190004E5D0020D0440020024B1878421C1A703B
:1061A000704700BF4C5D00208A22064B1A70002306
:1061B000054A1370054A1370054A1360054A1360B7
:1061C000704700BF4C5D00204B5D00204D5D0020FE
:1061D000D0440020CC4400202DE9F0411A4D2B780A
:1061E0000BB1FFF7C1FF194C267896B10C22184964
:1061F000184F0B78013E5A430133B81803F01F03C0
:10620000BF5C0B702670D0E9018090B9124B1E68FC
:1062100026B92B7820781844BDE8F0812B780BB193
:10622000FFF7A2FF30464246394607F0D0FC3668F9
:10623000EEE7812F08BF01234246394608BF83732A
:1062400007F0C5FCE5E700BF4E5D00204D5D002076
:106250004B5D00204C430020D0440020024A034BF9
:1062600010781B78184470474D5D00204E5D00206B
:10627000F0B50B4E3378202B0FD00C25094C0A4F6C
:1062800024781C4404F01F046C433D19C5E9012027
:106290000020013339553370F0BD0120FCE700BF09
:1062A0004D5D00204B5D00204C43002038B5034C71
:1062B000256807F08CFC256038BD00BFCC44002069
:1062C00010B40A4C0A4621680B4683420CD04BB9E5
:1062D00050B1016001212060817310BC8121838154
:1062E000FFF7E4BF1B68F0E710BC7047D044002004
:1062F00038B1837B013B012B9FBF0123014AC3734C
:10630000137070474E5D002010B5084C206858B1DE
:1063100000232360D0E901319847236823B1BDE809
:1063200010401868FDF778BE10BD00BFD4440020AF
:1063300070B505880446672D09D0792D2FD0002D22
:1063400033D1FFF729FF1B4B18701B4B1D601B4EF1
:10635000194D08E00A282B680ED07E2B03DC5A1C4E
:106360002A60174AD054304607F007FD431CF1D18C
:106370006723238001201BE05A1C2A600025104A55
:106380002846D5540B4B1978FFF772FF0D4B2A4660
:1063900085211868FFF76CFF18B97923E9E785298B
:1063A000E8D10022044B1A60D1E7002303800320C8
:1063B00070BD00BFF56D0020D8440020DC440020F3
:1063C0004F5D0020CC4400200D28014610B516D0AA
:1063D0000C4C237853B90C4807F0BCFC08B90123D6
:1063E00023700A48FFF784FF012010BD0A28F8D166
:1063F000054807F0AFFC0028F3D00023F0E70020A9
:10640000F3E700BFCF5D0020DC440020A84000205F
:1064100008B505490548802207F095FCBDE808400D
:1064200000210348FFF74CBFD05D0020DC44002072
:10643000A84000202DE9F04104880546772C20D0A3
:106440007E2C3DD0002C4ED1FFF7A6FE284E294BC6
:10645000294FDFF8B08018703460336857F8232074
:106460002AB9264A137077232B8001203EE008F8D2
:1064700003409368002180209847336801333360DC
:10648000EBE700231E4A1360194A1360184B1B4A9E
:106490001B6812789A4204DC194B1B68002BF0D160
:1064A000E1E7184AD256002A19DA134A002052F8B6
:1064B0002320104B1978FFF7DBFE28B97E23D3E7A2
:1064C0000C4B1B788B42D0D1094B0E491A688B5C60
:1064D00003F07F038B540A4A136801331360044AA4
:1064E00013680133D1E7002303800320BDE8F08166
:1064F000E8440020F66D002050400020505E00204F
:10650000E4440020F06D002010B40A4B0A4A1978C8
:1065100000238B4203DA52F8044BA04208D107490A
:106520000748CA5C62F07F02CA5410BCFFF7E0BEA5
:106530000133EEE7505E002050400020F06D002057
:10654000B8400020064A136843F004031360054B6B
:10655000186804331B6840EA032080B2704700BF0C
:1065600000700D4014700D4010B5174A136823F0E9
:106570000C0313600122154B1A601A68012AFCD122
:106580000822134B13491A60E32203F505731A60BE
:106590001A460B68DB07FCD50F4C1021002320683E
:1065A000013900F0010043EA00034FEA43039BB2C4
:1065B000F5D1002BF1D00949180A03F0FE03086059
:1065C0000B60EF23136010BD00700D40A8200D403C
:1065D00024860840648608409C86084014700D405C
:1065E0002DE9FF476F46224D224E05F108030FCBE0
:1065F00087E80F00337895F80780BBB13A221E492F
:10660000AA710A88D21A92B20A80A2F1280108124D
:10661000287103F128002844C3F1040369712C3A5E
:10662000011D184406F0EAFF00233370134807F0F9
:10663000F9FA0446DFF840A02CB90F4B34701C80E7
:1066400004B0BDE8F087D4F80490B9F1000F09D088
:10665000BAF8003032782C3B3832414638469BB28B
:106660002A44C847204607F015FB0446E4E700BF6C
:10667000F8670020785E0020E4670020EC440020EA
:10668000F8B52C4B2C4C1B7904F11806E371237ED2
:1066900004F10805FF2B31D195E80F0086E80F00C3
:1066A0003146284600F0DCFA244D2B78BBB13A2263
:1066B0002349A2710A8803F12800D21A92B20A80F3
:1066C000C3F10403A2F1280120440E1261712C3A97
:1066D000011D1844267106F091FF00232B708121C3
:1066E0002B782833E218E1520023538007F0D0FBC7
:1066F000C0432B78134A13445880F8BD2F46124AE2
:106700003B4603CBB342106051601F4602F10802C2
:10671000F6D196E80F0085E80F000B4B0B4D03F107
:1067200010062A4618685968083303C2B342154652
:10673000F7D1B9E778660020F8670020785E00207E
:10674000E467002020680020F25700201068002035
:1067500038B504460B480D4607F064FA08B9012025
:106760000FE00379A34204D143799D4204D0FF2B6B
:1067700002D007F08FFAF1E78368002BEFD098473B
:10678000002038BDF04400200146014807F067BAF8
:10679000F04400202DE9F74F474D81462B7888467D
:1067A000934653B1454A9B5C3A2B0ED10023444A91
:1067B0002B70138003B0BDE8F08F424B9A793A2AD0
:1067C00003D193F92830002BF0DA3F4C03F0A4FEFC
:1067D00004F110063746A2463C4A234603CBB34297
:1067E000106051601C4602F10802F6D1344E354C5F
:1067F0003388214630339BB2B3F5A06F88BF4FF486
:10680000A063338032882B78D21A04EB4300303AED
:106810003030019306F0F2FE6022019B22603A22A2
:10682000002B47D084F82820294B62891B79E3711B
:1068300023891343A2891343E2891343228A134312
:10684000628A1343A28A1343E28A13439BB2002B4A
:10685000ACD0204B0FCB8AE80F001C4B1B78FF2BD2
:1068600005D1B9F1040FA1D1B8F1020F9ED117499A
:10687000184800F0F5F995F800A058460AF12803E9
:10688000E21804F8039082F8018001F01DFD124B1C
:1068900043F80A003388283B1A12227100226371E0
:1068A0002B783B445A8007F0F3FAC0432B781F44FF
:1068B00078807FE7A271B7E7785E0020206800202B
:1068C000E4670020F867002010680020F2570020DD
:1068D0007866002000680020246800202DE9F0413F
:1068E0001E4660231A4D0F462B603A230446AB71B7
:1068F000184B90461B7900F1100CEB71331D1A12E6
:106900002A716B7105F1180213462068616808341A
:1069100003C364451A46F7D10F49104CA1F110008A
:1069200000F09EF923782C362833EA18EF54002320
:1069300082F80180538007F0ABFAC0432378084AFD
:1069400013445880074B1E80BDE8F04103F002B8A5
:10695000F86700207866002010680020785E00202C
:1069600020680020E467002008B50448FFF70CFF0A
:10697000BDE808400248FFF707BF00BFD440002031
:10698000C84000202DE9F341144D0446CDE900151F
:106990000E4690461F46202203460321104807F06A
:1069A000FCF9012818D12B6804F110021870204658
:1069B0002B68023350F8041B904243F8041BF9D1B2
:1069C0002868089B86744361099B80F813800777C9
:1069D000836102B0BDE8F0810020FAE7FC440020AA
:1069E00074670020F8B507460B4E0C4D2E606036DC
:1069F0002C68B44201D30020F8BD237833B1A27CC7
:106A00003946D208A01C06F053FD10B120342C608A
:106A1000EEE70120F0E700BF74670020FC4400208F
:106A2000802213B5074C034600920321202206481A
:106A3000019407F0B2F910B9206802B010BD00202F
:106A4000FBE700BFF44400209066002030B5044608
:106A500048F2FE050A490B4A11606031106888420D
:106A600001D3002030BD03783BB1631C02D0837C8E
:106A7000A34202D14388AB42F4D020301060EDE74E
:106A800090660020F444002030B5044648F2FE052C
:106A90000A490B4A116060311068884201D3002016
:106AA00030BD03783BB1631C02D0837CA34202D18A
:106AB0004388AB42F4D120301060EDE790660020AF
:106AC000F4440020802337B50F4D12220093044672
:106AD000034605210D48019507F05FF901282A4674
:106AE0000FD12B6818702346296804F11000023179
:106AF00053F8044B834241F8044BF9D1106803B0BA
:106B000030BD0020FBE700BFF844002014670020E0
:106B10008023F7B5214C0093054603460E461746E1
:106B2000032120221E48019407F037F9012832D1B1
:106B30002A46236805F1100118702368023352F8C1
:106B4000040B8A4243F8040BF9D12068C774DEB9FC
:106B5000012303750122236812489A7440F2FF232F
:106B60000380002343808380C38003814FF48073BC
:106B70004381FF2303736B7B4373EB89C381FFF76F
:106B8000A1FF206803B0F0BD002331460375183023
:106B900006F0D8FFDEE70020F4E700BFF444002051
:106BA0009066002002580020802213B5074C03464F
:106BB0000092052112220648019407F0EEF810B960
:106BC000206802B010BD0020FBE700BFF8440020A1
:106BD0001467002038B50546C8B140F2FF230C48C1
:106BE000002403804FF480734381FF23448084801A
:106BF000C48004810373EB7B43732B8AC381FFF74B
:106C0000D3FF044A106008B107F0EBF82C7038BDD0
:106C100002580020F844002038B50E4D0E4C256077
:106C200060352068A84206D300F0FEFABDE838407F
:106C30000A4806F0B1BF037843B1037D33B9183079
:106C400006F087FF10B12068FFF7C4FF23682033E8
:106C50002360E6E790660020F4440020D46700201B
:106C60002DE9F84F48F2FE030A8805469A42884605
:106C70002BD00A78FF2A28D000249B46A2461A4A25
:106C80001A4F02F160093A603E684E450AD30CBBC8
:106C90002C806C80AC80EC802C816C81AC81EC8190
:106CA000BDE8F88F33786BB1B37C012B0AD17388C0
:106CB0005B4507D04046B11C07F0A0F882459CBF59
:106CC0003446824620363E60DEE70120FFF7BEFEF6
:106CD0000446DCE7A31C123453F8042BA34245F806
:106CE000042BF9D1DCE700BF90660020F4440020BB
:106CF00070B5094EB0684508FFF724FC0446FFF75D
:106D000021FC2402B268A4B22044B0FBF2F302FBDF
:106D10001300284470BD00BF7866002073B5304C66
:106D200001F012FB00F096F8602200212D4806F0D9
:106D3000CBFC00212046F42206F0C6FC20222A4B80
:106D400040261A701822294B00251A704FF4A063B0
:106D500044F8043C264B04F80469A360FFF7C8FF1D
:106D600042F21073236148F2FE03E0602575214C66
:106D70002A46238031462B466580A580E580204643
:106D8000CDE90055FFF7FEFD20461B4907F02DF821
:106D900029460122FFF7BCFE40F2FF264FF4807324
:106DA0002046E38126806580A580E5802581658178
:106DB000A581FFF787FE4FF400732046268065808B
:106DC000A580E58025816581A581E381FFF77AFEB5
:106DD0000C210A4802B0BDE8704006F0D4BE00BFE6
:106DE0007C660020746700207167002070670020B7
:106DF000C027090002580020F0670020D467002057
:106E00002DE9F047054610480F46904606F00AFF68
:106E10000446DFF83890DFF838A00CB9BDE8F087F9
:106E2000012D0DDC504606F02EFF03464246394642
:106E300028466668B047204606F02CFF0446ECE77B
:106E4000D9F80030F2E700BF444600204846002051
:106E50008045002008B50B4806F01FFF0A4806F0E1
:106E6000DEFE0A4B0A49186804F046FC094806F0A1
:106E700014FF094806F0D3FEBDE80840074806F0B5
:106E8000CEBE00BF0C4100204C460020EC4000204C
:106E90003BDE2000E04000208045002044460020EA
:106EA00008B540B1044B4168186807F034FFBDE8ED
:106EB000084006F0F9BF08BDEC400020014806F08C
:106EC000B1BE00BF4C46002008B506F0EFFF0146FA
:106ED00030B1044B186807F00BFF003818BF0120D1
:106EE00008BD00BFEC4000202DE9F041804600279E
:106EF000FFF7E4FF3D46044684B965B1124806F049
:106F000091FE854207D029460F4806F095FE294696
:106F10000D4806F0B1FE2846BDE8F08194F82460E3
:106F2000BE420AD34046F20804F1080106F0C0FA56
:106F300018B9802E06D037462546204606F079FF40
:106F40000446D9E72546D9E74C46002038B5044623
:106F500000283FD04368002B3CD001461E4806F075
:106F60006BFE6368586806F05DFE054668B34368CB
:106F70009C4226D163682946586806F05DFE636826
:106F8000586806F04FFE28B963685968134B1868B3
:106F900004F05EFC2146124806F0A3FE2946114883
:106FA00006F09FFE104A20461368013B1360FFF76E
:106FB00077FF04F108010246BDE838400320FFF7DF
:106FC0001FBF284606F066FECFE704F1080002F076
:106FD000F7FBCFE738BD00BF4C460020EC40002057
:106FE0000C410020004100204846002010B5044616
:106FF00080B1406870B106F015FE30B9064B2146ED
:10700000BDE81040186804F023BC4068FFF79EFFFD
:107010006068F0E710BD00BFEC4000202DE9F84F9C
:10702000074610468A46904606F040FF064618B9C5
:1070300000252846BDE8F88F3846FFF755FF05467E
:1070400060B1FFF72DFF014628B11022404606F03F
:107050002FFA0028EDD02846FFF778FF2C4B1A684E
:107060009B46102AE4D02B4D3146286807F040FE9D
:10707000A946044668B9034604223146286804F04C
:107080006BFB04460028D3D000234060036006F069
:10709000C6FD214806F011FE06460028C8D001466C
:1070A0001E4806F0E9FD1E4806F007FE054620B919
:1070B0003146194806F015FEBBE746600146606898
:1070C00006F0CDFDDBF80030214601337460D9F8BD
:1070D0000000CBF8003004F0D1FB3B4606F1080479
:1070E00007F11005224618685968083303C2AB42FD
:1070F0001446F7D1002342463946022086F824A0E0
:10710000B361F3613362FFF77BFE354691E700BF61
:1071100048460020EC4000200C4100204C46002056
:107120000041002038B505460D4806F07BFD0446B9
:1071300000B938BDAC420ED12146094806F07CFDAD
:107140002146084806F0CDFD221D1146BDE8384015
:107150000120FFF755BE204606F09CFDE7E700BF83
:1071600080450020E040002038B50546084806F07C
:1071700059FD044608B9204638BD10222946201D75
:1071800006F096F90028F6D0204606F083FDF0E7D9
:1071900080450020F8B505460E46FFF7E5FF04469A
:1071A00040B9134806F089FD0446E0B10146114894
:1071B00006F062FD2B46271D05F1100C3A461868B3
:1071C0005968083303C263451746F7D16EB131469B
:1071D00004F1140006F0B6FC00232A4629460020DC
:1071E0002377FFF70DFE2046F8BD0123F5E700BF2A
:1071F000E04000208045002038B50A4806F012FD26
:10720000002504460CB9284638BD251D284601F046
:10721000CFF810B1437C002BF5D1204606F03AFDA3
:107220000446EFE78045002038B50D4806F0FAFC2B
:1072300004460B4D04B938BD237F63B904F1140033
:1072400006F087FC38B12046FFF76CFF284606F0B1
:10725000E9FC0446EEE7204606F01CFDF9E700BF16
:107260008045002037B5124B124D1C782B7905F163
:107270000801C4EB03226B7913449BB2ADF80630CE
:10728000BDF806302022184480B206F0D8FDBDF8C3
:10729000062004F1280192B2294406F0D0FD18B16D
:1072A00040BA80B203B030BD4FF6FF70FAE700BFBE
:1072B000785E0020F867002002200021F8B5294FF1
:1072C000294D3A78294C283253195E782070F600FF
:1072D0000736864202DA19B3207021E0131805EB55
:1072E000030CEB5C012B06D0632B09D0D3B9013022
:1072F0000121C0B2EDE7831C9CF801001844F7E7B8
:1073000001B1207003F08AF808B90120F8BD227895
:107310003B78174913440B445B7802321A442270BD
:107320000020F3E703F0C003802B07D0C02B0ED062
:10733000402B12D10029E8D02070E6E701B120707F
:10734000024402210420FFF725FA0220DEE701B102
:1073500020702B7EFF2BF3D1D7E79CF80130023051
:10736000CCE700BF785E0020F8670020795E00203F
:107370002068002070B5C578124B0D44EDB2DD7069
:10738000827802EB1122D2B29A704478B2EB112FBC
:107390005C7006781E7005D2601CC0B2587008B9C7
:1073A00001361E70C9B28D420BDA0132D2B29A7028
:1073B0003AB95A780132D2B25A7012B91A780132F7
:1073C0001A7070BDEC67002010B5084C01462068AB
:1073D0001430FFF7CFFF064A2368117819755178EA
:1073E00059759178D2789975DA7510BD08690020C1
:1073F000EC67002008B5FFF791FCFFF7B5FA06F03F
:107400005EFD002319460F4A138053809380D3807A
:10741000138153819381D3810B4A01330A2B82F864
:10742000251002F13002F8D14FF48062074B1A8028
:1074300000231946064A01330A2B118202F1200269
:10744000F9D108BDF46A00200C6900201258002010
:10745000086B00200246F0B52B4D2B8801339BB200
:10746000B3F5FA4F28BF4FF480532848002706464B
:107470001C0A44EA0324A4B296F825C0BCF1000F0C
:1074800003D0B6F810C0A445E8D001370A2F06F1A2
:107490003006F1D12B8000252B4690F825609EB157
:1074A000072E07D173B190F8267093F82660B74283
:1074B00088BF034601350A2D00F13000EDD123B914
:1074C0001846F0BD0346F5E703461148114E05780E
:1074D0001C821D76457859825D768578C0789D76C8
:1074E000D87600201D4658610B48C3E907600B4859
:1074F00002F1100658622C4610685168083203C425
:10750000B2422546F7D1DBE7125800200C69002073
:10751000735E0020010040004000001003020100E3
:10752000F8B5104E357845B10F4F05F127033C886B
:10753000A34203DB00233B803370F8BD0B4BA4F167
:1075400028021846521B591906F058F8641BA4B2B9
:107550003C80283C2212002300F8242C00F8234C05
:10756000EAE700BF785E0020E46700202068002082
:10757000F8B5224E338801339BB2B3F5FA4F28BFDA
:107580004FF480531E4A0027944615461C0A44EACD
:107590000324A4B2BCF810E0A645ECD001370A2FB2
:1075A0000CF1200CF6D133800023168A86B95F01D6
:1075B00005EB43131C82598290B9014610221846EC
:1075C00006F082F803460F4A3D4412792A7505E019
:1075D00001330A2B02F12002E7D100231846F8BD3F
:1075E00002461E4600F1100C3446106851680832FD
:1075F00003C462452646F7D1E5E700BF12580020D4
:10760000086B002078660020074A0023114610B559
:1076100032F8024B844203D1002221F8132010BD1E
:107620000133082BF4D1FAE7F46A002004282DE98D
:10763000F74FAD4E00F02081AC4FAD49AD4DAE4A95
:107640000328BA4689463C680D6015605ED194F8FF
:10765000253003F00F03032B14D1A38B002B40F034
:1076600082800822A54B1A7002F0DCFAA34B1A782C
:10767000A34B12F0200100F0958500221A8084F8B7
:10768000252096E0022B6ED1002305F8073C9D4B88
:1076900093F8352042F0020283F835209A4ADA63E3
:1076A00040223280602283F83420237D954D85F876
:1076B0003030637D05F1180785F83130A37D85F8FA
:1076C0003230E37D85F83330237E85F82C30637EBD
:1076D00085F82D30A37E85F82E30E37E85F82F3097
:1076E000238A2B85638A6B8594E80F0087E80F0057
:1076F000394605F10800FFF7B3FA94F82530DB06A8
:107700004CBF00234FF48043EB863FE3022840F058
:107710009F8000237D4A33801370794A13807C4A0E
:10772000D3780133DBB2D37063B993780133DBB222
:1077300093703BB953780133DBB2537013B91378AC
:107740000133137094F8253003F0FD02052A13D19C
:1077500094F826300133DBB2782B84F8263002D13E
:10776000002384F825300023684A33801370694A67
:107770001370624A13705CE1002BF4D0A28B5F4956
:10778000002A5ED094F82620501E84F82600002A95
:10779000E9D194F82720082A04D0581E01280CD8D3
:1077A000052A0AD1002384F8253080230B7002F0CB
:1077B00039FA1422534B00F0BCBC042A15464FF092
:1077C000030028BF042503F00F03A8400132013B4A
:1077D00084F8260084F82720072BC4D801A252F889
:1077E00023F000BF757E2000057820000F78200070
:1077F0002F812000677720002F81200067772000ED
:107800002F81200000223F4B83F835203FE70423DF
:107810000B7002F007FA384B1B68C9F80030384B80
:107820001B88002B00F0DE84A38B002B00F0DA8491
:1078300018223C333380334B83F835205022314BB0
:1078400031E703F00F03032B8DD108230B700BE7F7
:10785000052863D1304B1B681B8A002B83D0002383
:107860000C3D1560264A3B60138008223380234B71
:107870000D601A7002F0D6F9214B1A88002A3FF4E5
:1078800072AF02F130031F4C9BB23380283B1912B8
:107890006371214B08321B6852BA2171197DA28590
:1078A0000022E1711121E2851A8AA17122855A8A8A
:1078B00004F1180562850FCB85E80F00294604F115
:1078C0000800FFF7CDF90A4B04F13C021A6006F0FC
:1078D000E5FAC04380B2002800F0FB81E085602219
:1078E000084B1A60A2E000BFE4670020086900208E
:1078F0000469002034680020E8670020F868002050
:10790000046B0020F867002002040040785E00202D
:10791000735E0020775E00200069002015F83C3C73
:107920003C3D03F0F003602B7FF41DAF2A796B79A7
:107930003088110203EB022282423FF714AF283352
:107940000B4433802B7AFF2B3FF40DAFBD4BAA1DA8
:107950001A600022BC4FBD4C3A702270AA7998463A
:10796000A2B901232370FFF7A7FC01283FF4FBAE67
:1079700002285BD050B93B7803F128022A44C8F8AA
:1079800000205278083303EBC2033B70B048FFF786
:1079900047F8002840F02A81AD48FFF705F9002894
:1079A00040F02481297E2B89FF2945D048F2FE0032
:1079B0002A8B824240D0834243D069890B43A989F4
:1079C0000B43E9890B43298A0B43698A0B43A98A34
:1079D0000B43E98A0B439BB2002B3FF4C4AE6B8B85
:1079E0001343AA8B1343EA8B13432A8C13436A8CE9
:1079F0001343AA8C13439BB223B9EB8CB3F5807F5E
:107A00003FF4B1AE3388B3F5A06F06D94FF4A0624E
:107A100000210220FEF7BEFE08E0EB79012B03D81F
:107A2000002203201146F5E7013BEB710022894B50
:107A30001A7003B0BDE8F08F48F2FE0293427FF463
:107A400092AE6A8B2B8B1343AA8B1343EA8B13439F
:107A50002A8C13436A8C1343AA8C13439BB223B919
:107A6000EB8CB3F5807F3FF47EAEFF293FF47BAE15
:107A70007748FEF7B7FF024600287FF474AE022174
:107A80000120C7E7BBF12B0F40F0C680237813F02D
:107A9000040140F0C1803A7843F00403237002F1FE
:107AA00028032B44D878002800F0C4802A32042010
:107AB000B0E7BBF13B0F3FF456AEBBF13C0F00F01B
:107AC000AE80BBF13A0F40F0A78006F0E1F94FF627
:107AD000FF7398427FF447AE3B785F4AD05C01F079
